0          EXTRATO C/C    92702067007280                                    041BERGS          10120201600BPI                                                                                 04041000001
102966621680009990009       40006009123000                                      061202000000000003582744C                                                                                    04041000002
102966621680009990009       400060091230011040159DB.CFE AVISO-R           004337021206000000000000016850D                             3039                                                   04041000003
102966621680009990009       400060091230012010822DEP.DINHEIRO-IA          000273021209000000000000376304C                             2640                                                   04041000004
102966621680009990009       400060091230012010822DEP.DINHEIRO-IA          000274021209000000000000297455C                             2640                                                   04041000005
102966621680009990009       400060091230012010822DEP.DINHEIRO-IA          000950021209000000000000610461C                             2571                                                   04041000006
102966621680009990009       400060091230012010822DEP.DINHEIRO-IA          000953021209000000000000589639C                             2571                                                   04041000007
102966621680009990009       400060091230012010822DEP.DINHEIRO-IA          000958021209000000000000089500C                             2571                                                   04041000008
102966621680009990009       400060091230012010822DEP.DINHEIRO-IA          000966021209000000000000300000C                             2136                                                   04041000009
102966621680009990009       400060091230012010822DEP.DINHEIRO-IA          000968021209000000000000007305C                             2136                                                   04041000010
102966621680009990009       400060091230012010822DEP.DINHEIRO-IA          001015021209000000000000599395C                             2640                                                   04041000011
102966621680009990009       400060091230012010822DEP.DINHEIRO-IA          001160021209000000000000014550C                             2136                                                   04041000012
102966621680009990009       400060091230012010822DEP.DINHEIRO-IA          001209021209000000000000323870C                             2136                                                   04041000013
102966621680009990009       400060091230012010822DEP.DINHEIRO-IA          001250021209000000000000180000C                             2640                                                   04041000014
102966621680009990009       400060091230012010822DEP.DINHEIRO-IA          001670021209000000000000100910C                             2516                                                   04041000015
102966621680009990009       400060091230012010822DEP.DINHEIRO-IA          001671021209000000000000230775C                             2516                                                   04041000016
102966621680009990009       400060091230012010822DEP.DINHEIRO-IA          001674021209000000000000182400C                             2516                                                   04041000017
102966621680009990009       400060091230012010822DEP.DINHEIRO-IA          001686021209000000000001340000C                             2516                                                   04041000018
102966621680009990009       400060091230012010822DEP.DINHEIRO-IA          001700021209000000000000300000C                             2136                                                   04041000019
102966621680009990009       400060091230012010822DEP.DINHEIRO-IA          001716021209000000000000300000C                             2136                                                   04041000020
102966621680009990009       400060091230012010822DEP.DINHEIRO-IA          001728021209000000000000300000C                             2136                                                   04041000021
102966621680009990009       400060091230012010822DEP.DINHEIRO-IA          001758021209000000000000107510C                             2136                                                   04041000022
102966621680009990009       400060091230012010822DEP.DINHEIRO-IA          001767021209000000000001720000C                             2516                                                   04041000023
102966621680009990009       400060091230012010822DEP.DINHEIRO-IA          001795021209000000000000300000C                             2136                                                   04041000024
102966621680009990009       400060091230012010822DEP.DINHEIRO-IA          001832021209000000000000162890C                             2136                                                   04041000025
102966621680009990009       400060091230012010822DEP.DINHEIRO-IA          001907021209000000000000200000C                             2136                                                   04041000026
102966621680009990009       400060091230012010822DEP.DINHEIRO-IA          001949021209000000000000148532C                             2132                                                   04041000027
102966621680009990009       400060091230012010822DEP.DINHEIRO-IA          001951021209000000000000446467C                             2132                                                   04041000028
102966621680009990009       400060091230012010822DEP.DINHEIRO-IA          002178021209000000000000260385C                             2136                                                   04041000029
102966621680009990009       400060091230012010822DEP.DINHEIRO-IA          002267021209000000000000149140C                             2949                                                   04041000030
102966621680009990009       400060091230012010822DEP.DINHEIRO-IA          002281021209000000000000250000C                             2949                                                   04041000031
102966621680009990009       400060091230012010822DEP.DINHEIRO-IA          002295021209000000000000094450C                             2949                                                   04041000032
102966621680009990009       400060091230012010822DEP.DINHEIRO-IA          002554021209000000000000110000C                             2878                                                   04041000033
102966621680009990009       400060091230012010822DEP.DINHEIRO-IA          002559021209000000000000081470C                             2878                                                   04041000034
102966621680009990009       400060091230012010822DEP.DINHEIRO-IA          002564021209000000000000002593C                             2878                                                   04041000035
102966621680009990009       400060091230012010822DEP.DINHEIRO-IA          002711021209000000000000085562C                             2308                                                   04041000036
102966621680009990009       400060091230012010822DEP.DINHEIRO-IA          002974021209000000000000565384C                             2946                                                   04041000037
102966621680009990009       400060091230012010822DEP.DINHEIRO-IA          002989021209000000000000535416C                             2946                                                   04041000038
102966621680009990009       400060091230012010822DEP.DINHEIRO-IA          003012021209000000000000002500C                             2949                                                   04041000039
102966621680009990009       400060091230012010822DEP.DINHEIRO-IA          003033021209000000000000001950C                             2949                                                   04041000040
102966621680009990009       400060091230012010822DEP.DINHEIRO-IA          003038021209000000000000007200C                             2949                                                   04041000041
102966621680009990009       400060091230012010822DEP.DINHEIRO-IA          003043021209000000000000185000C                             2949                                                   04041000042
102966621680009990009       400060091230012010822DEP.DINHEIRO-IA          003181021209000000000000287652C                             2898                                                   04041000043
102966621680009990009       400060091230012010822DEP.DINHEIRO-IA          003183021209000000000000300000C                             2949                                                   04041000044
102966621680009990009       400060091230012010822DEP.DINHEIRO-IA          003253021209000000000000630000C                             2898                                                   04041000045
102966621680009990009       400060091230012010822DEP.DINHEIRO-IA          003595021209000000000000865000C                             2898                                                   04041000046
102966621680009990009       400060091230012010822DEP.DINHEIRO-IA          003653021209000000000000640000C                             2136                                                   04041000047
102966621680009990009       400060091230012010822DEP.DINHEIRO-IA          003708021209000000000000487865C                             2136                                                   04041000048
102966621680009990009       400060091230012010822DEP.DINHEIRO-IA          003710021209000000000000698745C                             2136                                                   04041000049
102966621680009990009       400060091230012010822DEP.DINHEIRO-IA          003801021209000000000000240000C                             2878                                                   04041000050
102966621680009990009       400060091230012010822DEP.DINHEIRO-IA          003818021209000000000000255000C                             2136                                                   04041000051
102966621680009990009       400060091230012010822DEP.DINHEIRO-IA          004200021209000000000000635000C                             2152                                                   04041000052
102966621680009990009       400060091230012010822DEP.DINHEIRO-IA          004209021209000000000000347681C                             2152                                                   04041000053
102966621680009990009       400060091230012010822DEP.DINHEIRO-IA          004227021209000000000001000000C                             2152                                                   04041000054
102966621680009990009       400060091230012010822DEP.DINHEIRO-IA          004323021209000000000000968565C                             2152                                                   04041000055
102966621680009990009       400060091230012010822DEP.DINHEIRO-IA          007616021209000000000000155980C                             2965                                                   04041000056
102966621680009990009       400060091230012010822DEP.DINHEIRO-IA          007668021209000000000000440000C                             2965                                                   04041000057
102966621680009990009       400060091230012010822DEP.DINHEIRO-IA          008674021209000000000000284600C                             2219                                                   04041000058
102966621680009990009       400060091230012010822DEP.DINHEIRO-IA          009727021209000000000000485000C                             2590                                                   04041000059
102966621680009990009       400060091230012010822DEP.DINHEIRO-IA          009731021209000000000000106965C                             2590                                                   04041000060
102966621680009990009       400060091230012010822DEP.DINHEIRO-IA          009739021209000000000000000055C                             2590                                                   04041000061
102966621680009990009       400060091230012010822DEP.DINHEIRO-IA          009747021209000000000000001500C                             2590                                                   04041000062
102966621680009990009       400060091230012010822DEP.DINHEIRO-IA          012743021209000000000000340000C                             2965                                                   04041000063
102966621680009990009       400060091230012010822DEP.DINHEIRO-IA          012804021209000000000000325000C                             2965                                                   04041000064
102966621680009990009       400060091230011010021CHEQUE POR CAIXA         538518021209000000000008678323D                             3011                                                   04041000065
102966621680009990009       400060091230011040327EST.CH.DEP.MENOR         010001021209000000000000015396D                             7390                                                   04041000066
102966621680009990009       400060091230011040327EST.CH.DEP.MENOR         010002021209000000000000028739D                             7390                                                   04041000067
102966621680009990009       400060091230011040327EST.CH.DEP.MENOR         010003021209000000000000034566D                             7390                                                   04041000068
102966621680009990009       400060091230011040327EST.CH.DEP.MENOR         010004021209000000000000021400D                             7390                                                   04041000069
102966621680009990009       400060091230011040327EST.CH.DEP.MENOR         010005021209000000000000013300D                             7390                                                   04041000070
102966621680009990009       400060091230011040327EST.CH.DEP.MENOR         010006021209000000000000010000D                             7390                                                   04041000071
102966621680009990009       400060091230011040327EST.CH.DEP.MENOR         010007021209000000000000002430D                             7390                                                   04041000072
102966621680009990009       400060091230011040327EST.CH.DEP.MENOR         010008021209000000000000021254D                             7390                                                   04041000073
102966621680009990009       400060091230011040327EST.CH.DEP.MENOR         010009021209000000000000011500D                             7390                                                   04041000074
102966621680009990009       400060091230011040327EST.CH.DEP.MENOR         010010021209000000000000004416D                             7390                                                   04041000075
102966621680009990009       400060091230011040327EST.CH.DEP.MENOR         010011021209000000000000008800D                             7390                                                   04041000076
102966621680009990009       400060091230011040327EST.CH.DEP.MENOR         010012021209000000000000005500D                             7390                                                   04041000077
102966621680009990009       400060091230011040327EST.CH.DEP.MENOR         010013021209000000000000026327D                             7390                                                   04041000078
102966621680009990009       400060091230011040327EST.CH.DEP.MENOR         010014021209000000000000013975D                             7390                                                   04041000079
102966621680009990009       400060091230011040327EST.CH.DEP.MENOR         010015021209000000000000012250D                             7390                                                   04041000080
102966621680009990009       400060091230011040327EST.CH.DEP.MENOR         010016021209000000000000015000D                             7390                                                   04041000081
102966621680009990009       400060091230011040327EST.CH.DEP.MENOR         010017021209000000000000025560D                             7390                                                   04041000082
102966621680009990009       400060091230011040327EST.CH.DEP.MENOR         010018021209000000000000010000D                             7390                                                   04041000083
102966621680009990009       400060091230011040327EST.CH.DEP.MENOR         010019021209000000000000014000D                             7390                                                   04041000084
102966621680009990009       400060091230011040327EST.CH.DEP.MENOR         010020021209000000000000030000D                             7390                                                   04041000085
102966621680009990009       400060091230011040327EST.CH.DEP.MENOR         010021021209000000000000007000D                             7390                                                   04041000086
102966621680009990009       400060091230011040327EST.CH.DEP.MENOR         010022021209000000000000001825D                             7390                                                   04041000087
102966621680009990009       400060091230011040327EST.CH.DEP.MENOR         010023021209000000000000025395D                             7390                                                   04041000088
102966621680009990009       400060091230011040327EST.CH.DEP.MENOR         010024021209000000000000015780D                             7390                                                   04041000089
102966621680009990009       400060091230011040327EST.CH.DEP.MENOR         010025021209000000000000003400D                             7390                                                   04041000090
102966621680009990009       400060091230011040327EST.CH.DEP.MENOR         010026021209000000000000013000D                             7390                                                   04041000091
102966621680009990009       400060091230011040327EST.CH.DEP.MENOR         010027021209000000000000019000D                             7390                                                   04041000092
102966621680009990009       400060091230011040327EST.CH.DEP.MENOR         010028021209000000000000009030D                             7390                                                   04041000093
102966621680009990009       400060091230011040327EST.CH.DEP.MENOR         010029021209000000000000045040D                             7390                                                   04041000094
102966621680009990009       400060091230011040327EST.CH.DEP.MENOR         010030021209000000000000014500D                             7390                                                   04041000095
102966621680009990009       400060091230011040327EST.CH.DEP.MENOR         010031021209000000000000010000D                             7390                                                   04041000096
102966621680009990009       400060091230011040327EST.CH.DEP.MENOR         010032021209000000000000006990D                             7390                                                   04041000097
102966621680009990009       400060091230011040327EST.CH.DEP.MENOR         010033021209000000000000005600D                             7390                                                   04041000098
102966621680009990009       400060091230011040327EST.CH.DEP.MENOR         010034021209000000000000013000D                             7390                                                   04041000099
102966621680009990009       400060091230011040327EST.CH.DEP.MENOR         010035021209000000000000009284D                             7390                                                   04041000100
102966621680009990009       400060091230011010475CH.COMPENSADO            538519021209000000000005950493D                             6076                                                   04041000101
102966621680009990009       400060091230011040441TAR.SPB-CH.COMPE         538516021209000000000000007200D                             5029                                                   04041000102
102966621680009990009       40006009123002                                      091202000000000010646427CF000000000000705894C000000000000035000C000000000011387321C                          04041000103
90000100010200000000151761230000000021053621                                                                                                                                                 04041000104
